:020000040800F2
:1000000000200020B9190008AD090008AF09000858
:1000100000000000000000000000000000000000E0
:10002000000000000000000000000000B10900080E
:100030000000000000000000B3090008B509000836
:10004000091A0008091A0008091A0008091A000804
:10005000091A00082D060008091A0008091A0008E4
:10006000091A0008091A0008091A0008BD09000841
:10007000091A0008091A0008091A0008091A0008D4
:10008000091A0008091A000800000000091A0008EF
:10009000091A0008091A0008091A0008091A0008B4
:1000A000091A0008091A0008091A0008091A0008A4
:1000B000091A000800000000091A000800000000EA
:1000C00010B5064C2378002B07D1054B002B02D02E
:1000D000044800E000BF0123237010BDCC0B0020BA
:1000E00000000000641A0008044B10B5002B03D078
:1000F0000349044800E000BF10BDC04600000000F6
:10010000D00B0020641A0008002243088B4274D3ED
:1001100003098B425FD3030A8B4244D3030B8B4208
:1001200028D3030C8B420DD3FF22090212BA030C11
:100130008B4202D31212090265D0030B8B4219D3F2
:1001400000E0090AC30B8B4201D3CB03C01A524112
:10015000830B8B4201D38B03C01A5241430B8B425A
:1001600001D34B03C01A5241030B8B4201D30B0343
:10017000C01A5241C30A8B4201D3CB02C01A52416A
:10018000830A8B4201D38B02C01A5241430A8B422D
:1001900001D34B02C01A5241030A8B4201D30B0216
:1001A000C01A5241CDD2C3098B4201D3CB01C01A30
:1001B000524183098B4201D38B01C01A524143093A
:1001C0008B4201D34B01C01A524103098B4201D328
:1001D0000B01C01A5241C3088B4201D3CB00C01A95
:1001E000524183088B4201D38B00C01A524143080D
:1001F0008B4201D34B00C01A5241411A00D2014632
:10020000524110467047FFE701B5002000F006F8A4
:1002100002BDC0460029F7D076E770477047C04658
:1002200010B586B004AC08220021200001F0EDFBDF
:100230001E4B5A698021C9030A435A615A690A4010
:100240000392039A5A69802189020A435A615A69C2
:100250000A400292029A5A698021C9020A435A61ED
:100260005B690B400193019B114A93680F218B43FB
:1002700093609021C905CB68032083430122134377
:10028000CB600B6883430B6004922271002363717F
:10029000A271200000F0E6FB00220021052000F002
:1002A00045FC052000F072FC06B010BD00100240B5
:1002B0000000014000B583B0094A51690123194388
:1002C0005161526913400193019B002200210B20D0
:1002D00000F02CFC0B2000F059FC03B000BDC04620
:1002E0000010024082B003004000C01800230193B8
:1002F00004E0C046C046019B01330193019B834249
:10030000F7D302B07047000070B51420FFF7EAFF82
:100310000A4CA36980252D022B43A3611420FFF70B
:10032000E1FFA26980231B061343A3611420FFF79A
:10033000D9FFA3691D43A56170BDC04600080048F0
:1003400010B50400454A91698023DB010B4393619A
:1003500043B2002B46DB9022D205916980231B0615
:100360000B439361630645D59022D20591698023A2
:100370005B010B439361A30644D5394A91698023FD
:100380009B000B439361E30643D5354A9169802373
:100390005B000B439361FFF7B7FF230740D5902223
:1003A000D205916980231B020B43936163073FD5FC
:1003B0009022D205916980235B010B439361A307CF
:1003C0003ED5274A916980239B000B439361E40744
:1003D0003DD5234A916980235B000B439361FFF76E
:1003E00093FF10BD9022D205916980231B020B431D
:1003F0009361B7E79022D205916980235B050B4397
:100400009361B8E7164A916980239B040B4393617B
:10041000B9E7134A916980235B040B439361BAE700
:100420009022D205916980231B060B439361BDE79F
:100430009022D205916980235B050B439361BEE74F
:10044000074A916980239B040B439361BFE7044AE9
:10045000916980235B040B439361C0E70008004867
:100460000004004870B50500002403E0FFF768FFB2
:100470000134E4B2285D0028F8D170BD10B5040045
:10048000474A91698023DB050B43936143B2002BFC
:1004900049DB9022D205916980231B060B439361AF
:1004A000630648D59022D205916980235B010B43F6
:1004B0009361A30647D53B4A916980239B000B4378
:1004C0009361E30646D5374A916980235B000B436D
:1004D0009361FFF719FF230743D59022D205916955
:1004E00080231B020B439361630742D59022D20500
:1004F000916980235B010B439361A30741D5294A8E
:10050000916980239B000B439361E40740D5254A02
:10051000916980235B000B439361FFF7F5FE22484E
:10052000FFF7E0FE10BD9022D205916980231B02E7
:100530000B439361B4E79022D205916980235B0558
:100540000B439361B5E7174A916980239B040B43E2
:100550009361B6E7134A916980235B040B4393616F
:10056000B7E79022D205916980231B060B43936164
:10057000BAE79022D205916980235B050B43936112
:10058000BBE7084A916980239B040B439361BCE756
:10059000044A916980235B040B439361BDE7C04625
:1005A0000008004800040048B80B000010B51B4BC1
:1005B0005969802292020A435A6159698022D20203
:1005C0000A435A615969802212030A435A619022F0
:1005D000D20511688223DB050B431360104A1168B2
:1005E000A023DB020B4313600E4A1168A023DB0536
:1005F0000B4313600C48FFF775FE3320FFF73EFFF7
:100600003220FFF73BFF0C20FFF738FF2820FFF7D1
:1006100035FF0120FFF732FF10BDC0460010024039
:1006200000040048000800483075000010B500F0D4
:1006300013FA3A4B1B68C01AFA235B00984218D38E
:1006400000F00AFA354B1860354B1A68D368354903
:100650000B40D360344800F04CFB344B1B68002B3C
:100660000BD0012B24D0022B3DD0012000F082FCC6
:1006700010BD012000F07EFCFAE701332B4A136025
:100680002B48FFF72FFE0120FFF7F8FE2948FFF760
:10069000E9FE294B1A6829492348FA2300F0EEFAAB
:1006A0001F4B1A68D16880239B000B43D360DCE7A3
:1006B00001331E4A13601E48FFF714FE0120FFF7A6
:1006C000DDFE1F48FFF7CEFE1B4B1A681D4916487A
:1006D000FA2300F0D3FA124B1A68D16880239B00EA
:1006E0000B43D360C1E7114B00221A601048FFF79B
:1006F000F9FD0120FFF7C2FE1348FFF7B3FE0E4BD2
:100700001A6812490848FA2300F0B8FA044B1A682C
:10071000D16880239B000B43D360A6E7C00C002068
:100720002C0C0020FFFDFFFFE80B0020BC0C00207C
:10073000B80B00007C1A000800000020F003002025
:10074000881A0008D8070020941A00080400002026
:1007500072B6FEE700B58FB0102200210AA801F0A2
:1007600054F90822002108A801F04FF91C220021A9
:1007700001A801F04AF920488023DB05036000232B
:10078000436083601D4A1268013AC260036180338E
:10079000836100F047FD002824D180235B010A9388
:1007A00015480AA900F0B8FE00281DD1124800F033
:1007B00065FD00281AD10023089309930E4808A963
:1007C00001F038F8002813D100230193029303931A
:1007D00005930948002201A900F0ECFD002809D189
:1007E0000FB000BDFFF7B4FFFFF7B2FFFFF7B0FF98
:1007F000FFF7AEFFFFF7ACFF2C0C0020EC0300204E
:1008000000B58FB0102200210AA801F0FEF80822DE
:10081000002108A801F0F9F81C22002101A801F02C
:10082000F4F82148214B0360002343608360204A91
:10083000C26003618033836100F0F4FC002828D19A
:1008400080235B010A9318480AA900F065FE00287E
:1008500021D1154800F03EFD00281ED10023089349
:100860000993114808A900F0E5FF002817D160237B
:10087000019300230293039305930B48082201A9D7
:1008800000F0C6FD00280CD1074801F067F80FB052
:1008900000BDFFF75DFFFFF75BFFFFF759FFFFF7B5
:1008A00057FFFFF755FFC046740C002000040040BE
:1008B000FF03000010B51A4A136801218B4313602F
:1008C000174B1B68DB07FBD4164A136801210B4347
:1008D0001360144B1B689B07FBD5124B1A68F82159
:1008E0008A4378390A431A605A6870318A435A60D9
:1008F0005A680D490A405A605A6803218A435A606F
:10090000084B5B680C221A42FAD1084801F04EF8F5
:10091000032000F05DF8002800D110BDFFF718FF9C
:100920000020024000100240FFF8FFFF00127A0092
:1009300010B500F075F8FFF739FEFFF7BBFFFFF7C2
:100940006FFCFFF7B7FCFFF705FFFFF759FF1048F3
:10095000082100F0F1FE0F4C0021200000F06EFE97
:100960000D4B1A680D490E48FA2300F087F90D481F
:10097000FFF7B8FC0120FFF781FD0B48FFF772FD80
:100980002268D16880239B000B43D360FEE7C046FA
:10099000740C00202C0C002000000020040000201B
:1009A000E80B0020B80B0000941A0008FEE7FEE7F1
:1009B0007047704710B500F043F810BD10B50248FD
:1009C00000F0BCF910BDC046E80B002070470000E5
:1009D00010B504000F4B1978FA208000FFF794FB44
:1009E00001000D4B1868FFF78FFB00F0DBF80028C3
:1009F0000DD1032C01D901200AE001300022210091
:100A0000404200F093F8054B1C60002000E00120FC
:100A100010BDC046C40B0020C00B0020C80B002036
:100A200010B5064A136810210B4313600320FFF72B
:100A3000CFFF00F035FF002010BDC046002002406F
:100A4000034A1168034B1B785B1813607047C0465C
:100A5000C40C0020C40B0020014B18687047C0462E
:100A6000C40C002010B503000079002850D01A688B
:100A7000002A57D05879012818D0022820D0002801
:100A80000BD001209A79002A4BD0022A2CD0032ABD
:100A900034D0012A1ED0012043E023494C689443FE
:100AA0004C601A680C6822430A60EBE71E4908682C
:100AB000904308601A68486802434A600020E1E7F2
:100AC0001949086802430A601A68486802434A6084
:100AD0000020D7E71C68144AD168A143D1601B6885
:100AE00091680B4393601CE01C680F4A9168A14316
:100AF00091601B68D1680B43D36012E019680A4A01
:100B00009468214391601B68D1680B43D36008E06F
:100B10001C68054A1168A1431160196853688B432A
:100B2000536010BD0020FCE70004014070B50028B0
:100B300011DB8308134DC0339B005C590322104026
:100B4000C000FC3216008640B44389010A4082404E
:100B500022435A5170BD0F230340083B9B080633C4
:100B60009B00094A944663445C6803221040C0001D
:100B7000FC3215008540AC4389010A408240224383
:100B80005A60E7E700E100E000ED00E0002805DB47
:100B90001F2318401E3B8340014A13607047C04624
:100BA00000E100E0013880235B0498420FD2094A3B
:100BB00050600948036A1B021B0AC02109060B4347
:100BC0000362002393600733136000207047012005
:100BD000FCE7C04610E000E000ED00E070B5066CF8
:100BE000C56B0124B4406C60046863604368102BDB
:100BF00004D0036899600368DA6070BD03689A6086
:100C00000368D960F9E7000010B504000068054BDF
:100C10009C4660441421FFF777FA80002064024B61
:100C2000E36310BDF8FFFDBF0000024070B5041E75
:100C300020D021250223435501680A680E4B1A4033
:100C4000436880680343E0680343206903436069A5
:100C50000343A0690343E069034313430B6020008F
:100C6000FFF7D2FF0023A363012262551F32A35472
:100C7000002070BD0120FCE70FC0FFFF70B504002D
:100C80002020205C012832D020200125255401306D
:100C9000205C012804D020230022E254022070BDF1
:100CA0002030013525540020A063256828680126DE
:100CB000B04328602000FFF791FFE36A002B0BD0C0
:100CC000226813680E210B43136022681368012108
:100CD0000B4313600020E2E7226813680A210B43EC
:100CE00013602268136806398B431360EDE7022016
:100CF000D5E710B52123C35C022B03D00423836303
:100D0000012010BD026813680E218B431360016837
:100D10000A6801239A430A60016CC26B1C008C4074
:100D20005460212283541F330022C254436B002B92
:100D300002D098470020E4E70020E2E770B5C36BDB
:100D40001A6804682568016C04238B401A4212D08B
:100D50006B0710D523689B0603D4236804229343B2
:100D60002360016CC26B04238B405360C36A002B69
:100D700000D0984770BD02238B401A4218D0AB07B1
:100D800016D523689B0606D423680A229343236062
:100D90002123093AC254016CC26B02238B40536079
:100DA00020230022C254836A002BE3D09847E1E756
:100DB00008238B401A42DDD02D07DBD523680E2295
:100DC00093432360016CC26B01231C008C40546070
:100DD0008363212283541F330022C254036B002BF0
:100DE000C8D09847C6E70000F0B583B0002356E0AE
:100DF00086685F000324BC40A643CC68BC403443F3
:100E00008460446894434E683609012232409A4017
:100E10002243426053E0DE080836B60037580532F8
:100E20001A4092000F249440A7430C69944022007A
:100E30003A43325056E0032600E00026A640340034
:100E40003C4302329200444E9451444A9768EA432C
:100E50003E00AE434C68E40201D53E002E433F4CB9
:100E6000A660E7683E0016404C68A40201D53E002B
:100E70002E433A4CE66067683E0016404C68A40377
:100E800001D53E002E43354C6660266832404C68E2
:100E9000E40301D52A003243304C226001330C6850
:100EA0002200DA4056D001229A4025001540144213
:100EB000F4D04E6803243440013C012C98D94C688E
:100EC00003222240032A08D0C4685E000322B240F5
:100ED00094438A68B2402243C2604C680322224095
:100EE000022A98D004685E0003221700B740BC4372
:100EF0004F683A40B240224302604C68C0229202DE
:100F00001442CBD0164CA66901221643A661A469EF
:100F100022400192019A9A08941CA4000E4EA759EF
:100F200003241C40A4000F26A640B7439026F605D4
:100F3000B04282D00B4EB04208D00B4EB04207D028
:100F40000A4EB04200D176E7052677E7012675E71D
:100F5000022673E703B0F0BD000001400004014029
:100F6000001002400004004800080048000C00483F
:100F70007047000010B5054B5B69184200D110BDE9
:100F8000024B5861FFF7F4FFF9E7C0460004014047
:100F900030B5036A012293430362056A426883699C
:100FA0007324A3430C681C4302239D438B682B438B
:100FB000154DA84208D0154DA84205D0144DA842A1
:100FC00002D0144DA84206D10825AB431D00CB68C2
:100FD0002B430425AB430C4DA84208D00B4DA8422F
:100FE00005D00B4DA84202D00A4DA84205D10A4DAA
:100FF0002A404D6915438A692A43426084614A68E0
:101000004263036230BDC046002C014000400140F5
:101010000044014000480140FFFCFFFF30B5036A77
:10102000194A13400362046A4268C3697325AB43DB
:101030000D681D43154B1C408B681B022343144C49
:10104000A04219D0124CA04208D0124CA04205D0A8
:10105000114CA04202D0114CA04207D1104C2240AA
:101060004C69240114438A69120122434260C5611C
:101070004A68C263036230BD0A4C1C40CB681B0245
:101080002343094C2340DDE7FFFEFFFFFFFDFFFF89
:10109000002C014000400140004401400048014054
:1010A000FFCFFFFFFFF7FFFFFFFBFFFF30B5036A36
:1010B000134A13400362046A4368C269114D2A400F
:1010C0000D682D021543104A14408A68120322430A
:1010D0000E4CA04208D00E4CA04205D00D4CA042B0
:1010E00002D00D4CA04204D10C4C1C404B699B011A
:1010F00023434360C5614B680364026230BDC04650
:10110000FFEFFFFFFF8CFFFFFFDFFFFF002C014021
:10111000004001400044014000480140FFBFFFFF84
:1011200030B5036A046A0125AC4304628469EF3573
:10113000AC43120122430A24A3430B43826103629E
:1011400030BD000030B5036A1024A34303628469F4
:10115000036A054D2C4012032243A024A343090136
:1011600019438261016230BDFF0FFFFF8368702267
:1011700093430B43693A134383607047704770474A
:101180000368214A904206D08022D205904202D0C4
:101190001E4A904203D1702293434A6813431A4A6D
:1011A000904212D08022D20590420ED0174A90422F
:1011B0000BD0174A904208D0164A904205D0164AE2
:1011C000904202D0154A904203D1154A1A40CB688A
:1011D0001343802293434A69134303608B68C362BD
:1011E0000B688362084B984208D00A4B984205D09E
:1011F000094B984202D0094B984201D10B69036315
:10120000012343617047C046002C014000040040A8
:1012100000200040004001400044014000480140DF
:10122000FFFCFFFF70B5041E26D03D23C35C002BDE
:101230001CD03D2502236355210001C9FFF7A0FF03
:1012400001234622A354083AA3540132A354013285
:10125000A3540132A3540132A3540132A3540132E6
:10126000A3540132A3546355002070BD3C330022C7
:10127000C25400F02DFBDCE70120F6E770B5041E38
:1012800026D03D23C35C002B1CD03D250223635593
:10129000210001C9FFF774FF01234622A354083A35
:1012A000A3540132A3540132A3540132A354013296
:1012B000A3540132A3540132A3540132A354635501
:1012C000002070BD3C330022C254FFF757FFDCE71B
:1012D0000120F6E770B5041E26D03D23C35C002B29
:1012E0001CD03D2502236355210001C9FFF748FFAB
:1012F00001234622A354083AA3540132A3540132D5
:10130000A3540132A3540132A3540132A354013235
:10131000A3540132A3546355002070BD3C33002216
:10132000C254FFF72CFFDCE70120F6E770B5036A33
:10133000102293430362026A44688369174D2B406D
:101340000D682D021D4320239A438B681B01134314
:10135000134A904219D0124A904208D0114A904242
:1013600005D0114A904202D0104A904207D1104A4B
:1013700014404A69920022438C69A40014434460DB
:1013800085614A688263036270BD802293431E00B8
:10139000CB681B013343403A9343DCE7FF8CFFFFEC
:1013A000002C014000400140004401400048014041
:1013B000FFF3FFFF10B504003C23C35C012B24D0D6
:1013C0003C230120E054082A1AD008D8002A12D061
:1013D000042A0CD12068FFF7A9FF002007E00C2A9F
:1013E00004D12068FFF762FE002000E001203C23CA
:1013F0000022E25410BD2068FFF7CAFD0020F6E786
:101400002068FFF70BFE0020F1E70220F2E7000062
:1014100070B504000D003C23C35C012B00D16AE0D1
:101420003C230121C154082A50D01CD8002A38D0AE
:10143000042A16D100682900FFF778FF2268916915
:1014400080231B010B439361226893692B490B4056
:10145000936121688B692A69120213438B61002012
:101460001BE0080019E00C2A16D100682900FFF7DC
:101470001DFE2268D16980231B010B43D3612268C2
:10148000D3691E490B40D3612168CB692A691202D6
:101490001343CB61002000E001203C230022E254F2
:1014A00070BD00682900FFF773FD22689369082169
:1014B0000B4393612268936904398B4393612268DB
:1014C000936929690B4393610020E6E700682900CE
:1014D000FFF7A4FD2268D36908210B43D36122687A
:1014E000D36904398B43D3612268D36929690B43DB
:1014F000D3610020D1E70220D2E7C046FFFBFFFF07
:1015000030B58468034D2C401B0213430B43234327
:10151000836030BDFF00FFFF10B5040008003C23CE
:10152000E35C012B00D177E03C230122E25401333C
:101530000132E2542268936838490B409360016895
:1015400060294FD029D8402957D00CD9502922D111
:101550004168C2682068FFF7E3FD20685021FFF76B
:1015600005FE002005E020290ED009D930290BD036
:1015700001203D230122E254013B0022E25410BD30
:10158000002901D0102904D12068FFF7EFFD0020C9
:10159000EFE70120EDE70120EBE7802252019142C5
:1015A00036D08022920191420DD181684268C36891
:1015B0002068FFF7A5FF226891688023DB010B43B9
:1015C00093600020D5E7702924D181684268C36800
:1015D0002068FFF795FF2268936877210B4393609B
:1015E0000020C6E74168C2682068FFF7ABFD2068AD
:1015F0006021FFF7BBFD0020BBE74168C26820689F
:10160000FFF78EFD20684021FFF7B0FD0020B0E716
:101610000020AEE70120ACE70220B0E78800FFFF22
:1016200010B51F23194001248C40036AA3430362B1
:10163000036A8A401343036210BD000010B5040022
:10164000002936D13E23C35C013B5A1E9341DBB2D5
:10165000002B62D1002945D13E330222E25420689A
:101660000122FFF7DDFF23682E4A934208D02E4A5D
:10167000934205D02D4A934202D02D4A934204D181
:10168000596C802212020A435A642368254A934205
:1016900038D08022D205934234D0264A934231D0AA
:1016A000214A93422ED01A6801210A431A60002071
:1016B00034E0042908D008290DD04123C35C013B44
:1016C0005A1E9341DBB2C3E73F23C35C013B5A1E62
:1016D0009341DBB2BCE74023C35C013B5A1E9341FC
:1016E000DBB2B5E7042905D0082907D0412302223F
:1016F000E254B4E73F230222E254B0E7402302223F
:10170000E254ACE7996807220A40062A07D01A6813
:1017100001210A431A60002000E0012010BD0020D2
:10172000FCE7C046002C014000400140004401405D
:10173000004801400004004010B50400002936D1E3
:101740003E23C35C013B5A1E9341DBB2002B62D1A6
:10175000002945D13E330222E25420680122FFF7DE
:101760005FFF23682E4A934208D02E4A934205D049
:101770002D4A934202D02D4A934204D1596C8022C3
:1017800012020A435A642368254A934238D08022C1
:10179000D205934234D0264A934231D0214A934213
:1017A0002ED01A6801210A431A60002034E004296F
:1017B00008D008290DD04123C35C013B5A1E934138
:1017C000DBB2C3E73F23C35C013B5A1E9341DBB24C
:1017D000BCE74023C35C013B5A1E9341DBB2B5E733
:1017E000042905D0082907D041230222E254B4E796
:1017F0003F230222E254B0E740230222E254ACE746
:10180000996807220A40062A07D01A6801210A436C
:101810001A60002000E0012010BD0020FCE7C04657
:10182000002C0140004001400044014000480140BC
:101830000004004030B53C23C35C012B28D03C237E
:101840000122C25401330132C25403685C689D68AE
:101850006E3294430A6822435A6003680D4A9342E9
:1018600009D08022D205934205D00B4A934202D080
:101870000A4A934204D1802295434A682A439A60D7
:101880003D230122C254013B0022C254002030BD3E
:101890000220FCE7002C0140000400400040014011
:1018A00082B00A4B996901221143996199690A40F2
:1018B0000092009ADA69802149050A43DA61DB69FE
:1018C0000B400193019B02B07047C04600100240DC
:1018D00010B582B0040003688022D205934204D080
:1018E0001A4A934227D002B010BD194AD169012388
:1018F0001943D161D26913400093009B1548164BE0
:10190000036010234360002383608022C260813221
:10191000FF32026180221201426120228261C36192
:10192000FFF784F9002803D10A4B63625C62DAE7AF
:10193000FEF70EFFF8E7064AD16902231943D16189
:10194000D26913400193019BCDE7C04600040040DB
:1019500000100240E80B00205800024010B586B08D
:1019600004001422002101A800F04FF822680C4B5B
:101970009A4201D006B010BD0A4B5A698021C902B3
:101980000A435A615B690B400093009B012301935A
:1019900002220292059301A90348FFF725FAE9E71D
:1019A000000400400010024000040048014B186091
:1019B0007047C046C00B00200D488546FFF706F86B
:1019C0000C480D490D4A002302E0D458C45004339A
:1019D000C4188C42F9D30A4A0A4C002301E0136070
:1019E0000432A242FBD300F019F8FEF7A1FFFEE794
:1019F0000020002000000020CC0B0020A41A0008CA
:101A0000CC0B0020C80C0020FEE703008218934294
:101A100000D1704719700133F9E7000070B5002656
:101A20000C4C0D4D641BA410A64209D1002600F0F9
:101A300019F80A4C0A4D641BA410A64205D170BDCA
:101A4000B300EB5898470136EEE7B300EB589847E0
:101A50000136F2E79C1A00089C1A0008A01A000838
:101A60009C1A0008F8B5C046F8BC08BC9E467047F2
:0C1A7000F8B5C046F8BC08BC9E467047A4
:101A7C00536177746F6F7468000000005472696171
:101A8C006E676C650000000053696E650000000015
:041A9C00E900000855
:041AA000C100000879
:101AA4003C040040000200000C0200001902000087
:101AB4002602000033020000400200004D02000034
:101AC4005902000066020000730200007F02000059
:101AD4008C02000098020000A4020000B002000082
:101AE400BD020000C8020000D4020000E0020000B1
:101AF400EB020000F7020000020300000D030000E7
:101B040018030000230300002D0300003803000025
:101B1400420300004C030000550300005F03000073
:101B240068030000710300007A03000082030000D0
:101B34008B030000930300009B030000A20300003A
:101B4400A9030000B0030000B7030000BE030000B7
:101B5400C4030000CA030000CF030000D503000043
:101B6400DA030000DE030000E3030000E7030000E3
:101B7400EB030000EE030000F1030000F403000097
:101B8400F6030000F9030000FB030000FC0300005F
:101B9400FD030000FE030000FF030000FF0300003C
:101BA400FF030000FF030000FE030000FD0300002C
:101BB400FB030000FA030000F8030000F503000033
:101BC400F3030000F0030000EC030000E90300004D
:101BD400E5030000E1030000DC030000D70300007C
:101BE400D2030000CD030000C7030000C1030000BE
:101BF400BA030000B4030000AD030000A603000014
:101C04009E030000970300008F0300008703000079
:101C14007E030000760300006D03000063030000F0
:101C24005A03000050030000470300003D03000076
:101C340032030000280300001D030000130300000A
:101C440008030000FC020000F1020000E6020000AC
:101C5400DA020000CE020000C2020000B702000057
:101C6400AA0200009E020000920200008502000009
:101C7400790200006C0200006002000053020000C0
:101C840046020000390200002D020000200200007C
:101C94001302000006020000F9010000EC0100003C
:101CA400DF010000D2010000C6010000B9010000FC
:101CB400AC0100009F0100009301000086010000B8
:101CC4007A0100006D01000061010000550100006F
:101CD400480100003D010000310100002501000021
:101CE400190100000E01000003010000F7000000CC
:101CF400EC000000E2000000D7000000CD0000006E
:101D0400C2000000B8000000AF000000A500000001
:101D14009C00000092000000890000008100000087
:101D240078000000700000006800000061000000FE
:101D340059000000520000004B0000004500000064
:101D44003E00000038000000320000002D000000BA
:101D540028000000230000001E0000001A000000FC
:101D640016000000130000000F0000000C0000002B
:101D74000A00000007000000050000000400000045
:101D8400020000000100000000000000000000004C
:101D9400000000000000000001000000020000003C
:101DA4000300000004000000060000000900000019
:101DB4000B0000000E0000001100000014000000E1
:101DC400180000001C000000210000002500000095
:101DD4002A00000030000000350000003B00000035
:101DE40041000000480000004F00000056000000C1
:101DF4005D000000640000006C000000740000003E
:101E04007D000000850000008E00000097000000A7
:101E1400A0000000AA000000B3000000BD00000004
:101E2400C7000000D2000000DC000000E700000052
:101E3400F2000000FD000000080100001401000091
:101E44001F0100002B0100003701000042010000C7
:101E54004F0100005B0100006701000073010000F6
:101E6400800100008C01000099010000A60100001F
:101E7400B2010000BF010000CC010000D901000044
:101E8400E6010000F30100000002000080020000EF
:101E94000000000004000000080000000C00000026
:101EA4001000000015000000190000001D000000D3
:101EB4002100000025000000290000002D00000082
:101EC40031000000350000003A0000003E00000030
:101ED40042000000460000004A0000004E000000DE
:101EE40052000000560000005A0000005E0000008E
:101EF40063000000670000006B0000006F0000003A
:101F040073000000770000007B0000007F000000E9
:101F140083000000880000008C0000009000000096
:101F240094000000980000009C000000A000000045
:101F3400A4000000A8000000AD000000B1000000F3
:101F4400B5000000B9000000BD000000C1000000A1
:101F5400C5000000C9000000CD000000D200000050
:101F6400D6000000DA000000DE000000E2000000FD
:101F7400E6000000EA000000EE000000F2000000AD
:101F8400F7000000FB000000FF0000000301000058
:101F9400070100000B0100000F0100001301000005
:101FA400170100001B0100002001000024010000B3
:101FB400280100002C010000300100003401000061
:101FC400380100003C010000400100004501000010
:101FD400490100004D0100005101000055010000BD
:101FE400590100005D01000061010000650100006D
:101FF4006A0100006E010000720100007601000019
:102004007A0100007E0100008201000086010000C8
:102014008A0100008F010000930100009701000075
:102024009B0100009F010000A3010000A701000024
:10203400AB010000AF010000B3010000B8010000D3
:10204400BC010000C0010000C4010000C801000080
:10205400CC010000D0010000D4010000D801000030
:10206400DD010000E1010000E5010000E9010000DC
:10207400ED010000F1010000F5010000F90100008C
:10208400FD01000002020000060200000A02000036
:102094000E02000012020000160200001A020000E4
:1020A4001E02000022020000270200002B02000092
:1020B4002F02000033020000370200003B02000040
:1020C4003F02000043020000470200004C020000EF
:1020D4005002000054020000580200005C0200009C
:1020E4006002000064020000680200006C0200004C
:1020F4007002000075020000790200007D020000F9
:102104008102000085020000890200008D020000A7
:1021140091020000950200009A0200009E02000055
:10212400A2020000A6020000AA020000AE02000003
:10213400B2020000B6020000BA020000BF020000B2
:10214400C3020000C7020000CB020000CF0200005F
:10215400D3020000D7020000DB020000DF0200000F
:10216400E4020000E8020000EC020000F0020000BB
:10217400F4020000F8020000FC020000000300006A
:1021840004030000080300000D0300001103000015
:1021940015030000190300001D03000021030000C3
:1021A40025030000290300002D0300003203000072
:1021B400360300003A0300003E030000420300001F
:1021C400460300004A0300004E03000052030000CF
:1021D400570300005B0300005F030000630300007B
:1021E400670300006B0300006F030000730300002B
:1021F400770300007C0300008003000084030000D8
:10220400880300008C030000900300009403000086
:10221400980300009C030000A1030000A503000034
:10222400A9030000AD030000B1030000B5030000E2
:10223400B9030000BD030000C1030000C503000092
:10224400CA030000CE030000D2030000D60300003E
:10225400DA030000DE030000E2030000E6030000EE
:10226400EA030000EF030000F3030000F70300009B
:10227400FB030000FF030000000000000800000052
:1022840011000000190000002100000029000000D6
:10229400320000003A000000420000004A00000042
:1022A400530000005B000000630000006B000000AE
:1022B400740000007C000000840000008C0000001A
:1022C400950000009D000000A5000000AD00000086
:1022D400B6000000BE000000C6000000CE000000F2
:1022E400D7000000DF000000E7000000EF0000005E
:1022F400F8000000000100000801000010010000C7
:102304001901000021010000290100003101000031
:102314003A010000420100004A010000520100009D
:102324005B010000630100006B0100007301000009
:102334007C010000840100008C0100009401000075
:102344009D010000A5010000AD010000B5010000E1
:10235400BE010000C6010000CE010000D60100004D
:10236400DF010000E7010000EF010000F7010000B9
:102374000002000008020000100200001802000021
:10238400210200002902000031020000390200008D
:10239400420200004A020000520200005A020000F9
:1023A400630200006B020000730200007B02000065
:1023B400840200008C020000940200009C020000D1
:1023C400A5020000AD020000B5020000BD0200003D
:1023D400C6020000CE020000D6020000DE020000A9
:1023E400E7020000EF020000F7020000FF02000015
:1023F400080300001003000018030000200300007D
:1024040029030000310300003903000041030000E8
:102414004A030000520300005A0300006203000054
:102424006B030000730300007B03000083030000C0
:102434008C030000940300009C030000A40300002C
:10244400AD030000B5030000BD030000C503000098
:10245400CE030000D6030000DE030000E603000004
:10246400EF030000F7030000FF030000FF03000078
:10247400F7030000EF030000E6030000DE030000A2
:10248400D6030000CE030000C5030000BD03000016
:10249400B5030000AD030000A40300009C0300008A
:1024A400940300008C030000830300007B030000FE
:1024B400730300006B030000620300005A03000072
:1024C400520300004A0300004103000039030000E6
:1024D400310300002903000020030000180300005A
:1024E4001003000008030000FF020000F7020000D0
:1024F400EF020000E7020000DE020000D602000046
:10250400CE020000C6020000BD020000B5020000B9
:10251400AD020000A50200009C020000940200002D
:102524008C020000840200007B02000073020000A1
:102534006B020000630200005A0200005202000015
:102544004A02000042020000390200003102000089
:1025540029020000210200001802000010020000FD
:102564000802000000020000F7010000EF01000073
:10257400E7010000DF010000D6010000CE010000E9
:10258400C6010000BE010000B5010000AD0100005D
:10259400A50100009D010000940100008C010000D1
:1025A400840100007C010000730100006B01000045
:1025B400630100005B010000520100004A010000B9
:1025C400420100003A01000031010000290100002D
:1025D40021010000190100001001000008010000A1
:1025E40000010000F8000000EF000000E700000018
:1025F400DF000000D7000000CE000000C60000008D
:10260400BE000000B6000000AD000000A500000000
:102614009D000000950000008C0000008400000074
:102624007C000000740000006B00000063000000E8
:102634005B000000530000004A000000420000005C
:102644003A000000320000002900000021000000D0
:102654001900000011000000080000000000000044
:0C26640000127A000100000004000000D9
:04000005080019B91D
:00000001FF
